{
  "_format": "hh-sol-artifact-1",
  "contractName": "BlockChain",
  "sourceName": "contracts/BlockChain.sol",
  "abi": [
    {
      "inputs": [
        {
          "internalType": "string",
          "name": "title",
          "type": "string"
        },
        {
          "internalType": "string",
          "name": "message",
          "type": "string"
        },
        {
          "internalType": "string",
          "name": "prevHash",
          "type": "string"
        }
      ],
      "name": "addBlock",
      "outputs": [],
      "stateMutability": "nonpayable",
      "type": "function"
    },
    {
      "inputs": [
        {
          "internalType": "uint256",
          "name": "i",
          "type": "uint256"
        }
      ],
      "name": "getBlock",
      "outputs": [
        {
          "internalType": "uint256",
          "name": "id",
          "type": "uint256"
        },
        {
          "internalType": "string",
          "name": "title",
          "type": "string"
        },
        {
          "internalType": "string",
          "name": "message",
          "type": "string"
        },
        {
          "internalType": "string",
          "name": "previousHash",
          "type": "string"
        },
        {
          "internalType": "string",
          "name": "hash",
          "type": "string"
        },
        {
          "internalType": "uint256",
          "name": "timestamp",
          "type": "uint256"
        }
      ],
      "stateMutability": "view",
      "type": "function"
    },
    {
      "inputs": [],
      "name": "getLength",
      "outputs": [
        {
          "internalType": "uint256",
          "name": "",
          "type": "uint256"
        }
      ],
      "stateMutability": "view",
      "type": "function"
    }
  ],
  "bytecode": "0x6080604052348015600f57600080fd5b50610f2f8061001f6000396000f3fe608060405234801561001057600080fd5b50600436106100415760003560e01c806304c0756914610046578063be1c766b1461007b578063fd228f3914610099575b600080fd5b610060600480360381019061005b91906106eb565b6100b5565b604051610072969594939291906107b7565b60405180910390f35b61008361038a565b6040516100909190610834565b60405180910390f35b6100b360048036038101906100ae9190610984565b610396565b005b6000606080606080600080805490508710610105576040517f08c379a00000000000000000000000000000000000000000000000000000000081526004016100fc90610a77565b60405180910390fd5b600080888154811061011a57610119610a97565b5b90600052602060002090600602019050806000015481600101826002018360030184600401856005015484805461015090610af5565b80601f016020809104026020016040519081016040528092919081815260200182805461017c90610af5565b80156101c95780601f1061019e576101008083540402835291602001916101c9565b820191906000526020600020905b8154815290600101906020018083116101ac57829003601f168201915b505050505094508380546101dc90610af5565b80601f016020809104026020016040519081016040528092919081815260200182805461020890610af5565b80156102555780601f1061022a57610100808354040283529160200191610255565b820191906000526020600020905b81548152906001019060200180831161023857829003601f168201915b5050505050935082805461026890610af5565b80601f016020809104026020016040519081016040528092919081815260200182805461029490610af5565b80156102e15780601f106102b6576101008083540402835291602001916102e1565b820191906000526020600020905b8154815290600101906020018083116102c457829003601f168201915b505050505092508180546102f490610af5565b80601f016020809104026020016040519081016040528092919081815260200182805461032090610af5565b801561036d5780601f106103425761010080835404028352916020019161036d565b820191906000526020600020905b81548152906001019060200180831161035057829003601f168201915b505050505091509650965096509650965096505091939550919395565b60008080549050905090565b60006103d4848484426000805490506040516020016103b9959493929190610b83565b604051602081830303815290604052805190602001206104a7565b905060006040518060c0016040528060008054905081526020018681526020018581526020018481526020018381526020014281525090806001815401808255809150506001900390600052602060002090600602016000909190919091506000820151816000015560208201518160010190816104529190610d82565b5060408201518160020190816104689190610d82565b50606082015181600301908161047e9190610d82565b5060808201518160040190816104949190610d82565b5060a08201518160050155505050505050565b606060006040518060400160405280601081526020017f303132333435363738396162636465660000000000000000000000000000000081525090506000604067ffffffffffffffff811115610500576104ff610859565b5b6040519080825280601f01601f1916602001820160405280156105325781602001600182028036833780820191505090505b50905060005b60208110156106965782600486836020811061055757610556610a97565b5b1a60f81b7effffffffffffffffffffffffffffffffffffffffffffffffffffffffffffff1916901c60f81c60ff168151811061059657610595610a97565b5b602001015160f81c60f81b826002836105af9190610e83565b815181106105c0576105bf610a97565b5b60200101907effffffffffffffffffffffffffffffffffffffffffffffffffffffffffffff1916908160001a90535082600f60f81b86836020811061060857610607610a97565b5b1a60f81b1660f81c60ff168151811061062457610623610a97565b5b602001015160f81c60f81b8260028361063d9190610e83565b60016106499190610ec5565b8151811061065a57610659610a97565b5b60200101907effffffffffffffffffffffffffffffffffffffffffffffffffffffffffffff1916908160001a9053508080600101915050610538565b508092505050919050565b6000604051905090565b600080fd5b600080fd5b6000819050919050565b6106c8816106b5565b81146106d357600080fd5b50565b6000813590506106e5816106bf565b92915050565b600060208284031215610701576107006106ab565b5b600061070f848285016106d6565b91505092915050565b610721816106b5565b82525050565b600081519050919050565b600082825260208201905092915050565b60005b83811015610761578082015181840152602081019050610746565b60008484015250505050565b6000601f19601f8301169050919050565b600061078982610727565b6107938185610732565b93506107a3818560208601610743565b6107ac8161076d565b840191505092915050565b600060c0820190506107cc6000830189610718565b81810360208301526107de818861077e565b905081810360408301526107f2818761077e565b90508181036060830152610806818661077e565b9050818103608083015261081a818561077e565b905061082960a0830184610718565b979650505050505050565b60006020820190506108496000830184610718565b92915050565b600080fd5b600080fd5b7f4e487b7100000000000000000000000000000000000000000000000000000000600052604160045260246000fd5b6108918261076d565b810181811067ffffffffffffffff821117156108b0576108af610859565b5b80604052505050565b60006108c36106a1565b90506108cf8282610888565b919050565b600067ffffffffffffffff8211156108ef576108ee610859565b5b6108f88261076d565b9050602081019050919050565b82818337600083830152505050565b6000610927610922846108d4565b6108b9565b90508281526020810184848401111561094357610942610854565b5b61094e848285610905565b509392505050565b600082601f83011261096b5761096a61084f565b5b813561097b848260208601610914565b91505092915050565b60008060006060848603121561099d5761099c6106ab565b5b600084013567ffffffffffffffff8111156109bb576109ba6106b0565b5b6109c786828701610956565b935050602084013567ffffffffffffffff8111156109e8576109e76106b0565b5b6109f486828701610956565b925050604084013567ffffffffffffffff811115610a1557610a146106b0565b5b610a2186828701610956565b9150509250925092565b7f426c6f636b20696e646578206f7574206f6620626f756e647300000000000000600082015250565b6000610a61601983610732565b9150610a6c82610a2b565b602082019050919050565b60006020820190508181036000830152610a9081610a54565b9050919050565b7f4e487b7100000000000000000000000000000000000000000000000000000000600052603260045260246000fd5b7f4e487b7100000000000000000000000000000000000000000000000000000000600052602260045260246000fd5b60006002820490506001821680610b0d57607f821691505b602082108103610b2057610b1f610ac6565b5b50919050565b600081905092915050565b6000610b3c82610727565b610b468185610b26565b9350610b56818560208601610743565b80840191505092915050565b6000819050919050565b610b7d610b78826106b5565b610b62565b82525050565b6000610b8f8288610b31565b9150610b9b8287610b31565b9150610ba78286610b31565b9150610bb38285610b6c565b602082019150610bc38284610b6c565b6020820191508190509695505050505050565b60008190508160005260206000209050919050565b60006020601f8301049050919050565b600082821b905092915050565b600060088302610c387fffffffffffffffffffffffffffffffffffffffffffffffffffffffffffffffff82610bfb565b610c428683610bfb565b95508019841693508086168417925050509392505050565b6000819050919050565b6000610c7f610c7a610c75846106b5565b610c5a565b6106b5565b9050919050565b6000819050919050565b610c9983610c64565b610cad610ca582610c86565b848454610c08565b825550505050565b600090565b610cc2610cb5565b610ccd818484610c90565b505050565b5b81811015610cf157610ce6600082610cba565b600181019050610cd3565b5050565b601f821115610d3657610d0781610bd6565b610d1084610beb565b81016020851015610d1f578190505b610d33610d2b85610beb565b830182610cd2565b50505b505050565b600082821c905092915050565b6000610d5960001984600802610d3b565b1980831691505092915050565b6000610d728383610d48565b9150826002028217905092915050565b610d8b82610727565b67ffffffffffffffff811115610da457610da3610859565b5b610dae8254610af5565b610db9828285610cf5565b600060209050601f831160018114610dec5760008415610dda578287015190505b610de48582610d66565b865550610e4c565b601f198416610dfa86610bd6565b60005b82811015610e2257848901518255600182019150602085019450602081019050610dfd565b86831015610e3f5784890151610e3b601f891682610d48565b8355505b6001600288020188555050505b505050505050565b7f4e487b7100000000000000000000000000000000000000000000000000000000600052601160045260246000fd5b6000610e8e826106b5565b9150610e99836106b5565b9250828202610ea7816106b5565b91508282048414831517610ebe57610ebd610e54565b5b5092915050565b6000610ed0826106b5565b9150610edb836106b5565b9250828201905080821115610ef357610ef2610e54565b5b9291505056fea26469706673582212201b141d3dff490b5ff27c876a8d2308d22756c63e51b9a6c5c0b77823390cd66a64736f6c634300081c0033",
  "linkReferences": {},
  "deployedLinkReferences": {}
}